{
  "contractName": "DivisibleNFTs",
  "abi": [
    {
      "inputs": [],
      "stateMutability": "payable",
      "type": "constructor"
    },
    {
      "anonymous": false,
      "inputs": [
        {
          "indexed": false,
          "internalType": "uint256",
          "name": "_acoinBalance",
          "type": "uint256"
        },
        {
          "indexed": false,
          "internalType": "address payable",
          "name": "_caller",
          "type": "address"
        },
        {
          "indexed": false,
          "internalType": "string",
          "name": "_message",
          "type": "string"
        }
      ],
      "name": "acoinBalanceOfEvent",
      "type": "event"
    },
    {
      "anonymous": false,
      "inputs": [
        {
          "indexed": false,
          "internalType": "address",
          "name": "_owner",
          "type": "address"
        },
        {
          "indexed": false,
          "internalType": "string",
          "name": "_tokenId",
          "type": "string"
        },
        {
          "indexed": false,
          "internalType": "uint256",
          "name": "_units",
          "type": "uint256"
        },
        {
          "indexed": false,
          "internalType": "string",
          "name": "_message",
          "type": "string"
        }
      ],
      "name": "addOwnerHoldingsEvent",
      "type": "event"
    },
    {
      "anonymous": false,
      "inputs": [
        {
          "indexed": false,
          "internalType": "address",
          "name": "_owner",
          "type": "address"
        },
        {
          "indexed": false,
          "internalType": "string",
          "name": "_tokenId",
          "type": "string"
        },
        {
          "indexed": false,
          "internalType": "uint256",
          "name": "_units",
          "type": "uint256"
        },
        {
          "indexed": false,
          "internalType": "string",
          "name": "_message",
          "type": "string"
        }
      ],
      "name": "addShareEvent",
      "type": "event"
    },
    {
      "anonymous": false,
      "inputs": [
        {
          "indexed": false,
          "internalType": "address",
          "name": "_account",
          "type": "address"
        },
        {
          "indexed": false,
          "internalType": "uint256",
          "name": "_numACoins",
          "type": "uint256"
        },
        {
          "indexed": false,
          "internalType": "address payable",
          "name": "_caller",
          "type": "address"
        },
        {
          "indexed": false,
          "internalType": "string",
          "name": "_message",
          "type": "string"
        }
      ],
      "name": "burnACoinEvent",
      "type": "event"
    },
    {
      "anonymous": false,
      "inputs": [
        {
          "indexed": false,
          "internalType": "address",
          "name": "_account",
          "type": "address"
        },
        {
          "indexed": false,
          "internalType": "uint256",
          "name": "_numACoins",
          "type": "uint256"
        },
        {
          "indexed": false,
          "internalType": "address payable",
          "name": "_caller",
          "type": "address"
        },
        {
          "indexed": false,
          "internalType": "string",
          "name": "_message",
          "type": "string"
        }
      ],
      "name": "burnACoinINREvent",
      "type": "event"
    },
    {
      "anonymous": false,
      "inputs": [
        {
          "indexed": false,
          "internalType": "address",
          "name": "_account",
          "type": "address"
        },
        {
          "indexed": false,
          "internalType": "uint256",
          "name": "_numACoins",
          "type": "uint256"
        },
        {
          "indexed": false,
          "internalType": "address payable",
          "name": "_caller",
          "type": "address"
        },
        {
          "indexed": false,
          "internalType": "string",
          "name": "_message",
          "type": "string"
        }
      ],
      "name": "buyACoinEvent",
      "type": "event"
    },
    {
      "anonymous": false,
      "inputs": [
        {
          "indexed": false,
          "internalType": "address",
          "name": "_account",
          "type": "address"
        },
        {
          "indexed": false,
          "internalType": "uint256",
          "name": "_numACoins",
          "type": "uint256"
        },
        {
          "indexed": false,
          "internalType": "address payable",
          "name": "_caller",
          "type": "address"
        },
        {
          "indexed": false,
          "internalType": "string",
          "name": "_message",
          "type": "string"
        }
      ],
      "name": "buyACoinINREvent",
      "type": "event"
    },
    {
      "anonymous": false,
      "inputs": [
        {
          "indexed": false,
          "internalType": "uint256",
          "name": "_divisibility",
          "type": "uint256"
        },
        {
          "indexed": false,
          "internalType": "address payable",
          "name": "_caller",
          "type": "address"
        },
        {
          "indexed": false,
          "internalType": "string",
          "name": "_message",
          "type": "string"
        }
      ],
      "name": "divisibilityEvent",
      "type": "event"
    },
    {
      "anonymous": false,
      "inputs": [
        {
          "indexed": false,
          "internalType": "uint256",
          "name": "_acoinTotalSupply",
          "type": "uint256"
        },
        {
          "indexed": false,
          "internalType": "address payable",
          "name": "_caller",
          "type": "address"
        },
        {
          "indexed": false,
          "internalType": "string",
          "name": "_message",
          "type": "string"
        }
      ],
      "name": "getAcoinTotalSupplyEvent",
      "type": "event"
    },
    {
      "anonymous": false,
      "inputs": [
        {
          "indexed": false,
          "internalType": "address",
          "name": "_owner",
          "type": "address"
        },
        {
          "indexed": false,
          "internalType": "string",
          "name": "_tokenId",
          "type": "string"
        },
        {
          "indexed": false,
          "internalType": "uint256",
          "name": "_noOfShares",
          "type": "uint256"
        },
        {
          "indexed": false,
          "internalType": "uint256",
          "name": "_tokenTotalSupply",
          "type": "uint256"
        },
        {
          "indexed": false,
          "internalType": "address payable",
          "name": "_caller",
          "type": "address"
        },
        {
          "indexed": false,
          "internalType": "string",
          "name": "_message",
          "type": "string"
        }
      ],
      "name": "mintEvent",
      "type": "event"
    },
    {
      "anonymous": false,
      "inputs": [
        {
          "indexed": false,
          "internalType": "address",
          "name": "_owner",
          "type": "address"
        },
        {
          "indexed": false,
          "internalType": "string",
          "name": "_tokenId",
          "type": "string"
        },
        {
          "indexed": false,
          "internalType": "uint256",
          "name": "_units",
          "type": "uint256"
        },
        {
          "indexed": false,
          "internalType": "string",
          "name": "_message",
          "type": "string"
        }
      ],
      "name": "removeOwnerHoldingsEvent",
      "type": "event"
    },
    {
      "anonymous": false,
      "inputs": [
        {
          "indexed": false,
          "internalType": "address",
          "name": "_owner",
          "type": "address"
        },
        {
          "indexed": false,
          "internalType": "string",
          "name": "_tokenId",
          "type": "string"
        },
        {
          "indexed": false,
          "internalType": "uint256",
          "name": "_units",
          "type": "uint256"
        },
        {
          "indexed": false,
          "internalType": "string",
          "name": "_message",
          "type": "string"
        }
      ],
      "name": "removeShareEvent",
      "type": "event"
    },
    {
      "anonymous": false,
      "inputs": [
        {
          "indexed": false,
          "internalType": "uint256",
          "name": "_totalSupply",
          "type": "uint256"
        },
        {
          "indexed": false,
          "internalType": "address payable",
          "name": "_caller",
          "type": "address"
        },
        {
          "indexed": false,
          "internalType": "string",
          "name": "_message",
          "type": "string"
        }
      ],
      "name": "totalSupplyEvent",
      "type": "event"
    },
    {
      "anonymous": false,
      "inputs": [
        {
          "indexed": false,
          "internalType": "address",
          "name": "_from",
          "type": "address"
        },
        {
          "indexed": false,
          "internalType": "address",
          "name": "_to",
          "type": "address"
        },
        {
          "indexed": false,
          "internalType": "uint256",
          "name": "_numACoins",
          "type": "uint256"
        },
        {
          "indexed": false,
          "internalType": "address payable",
          "name": "_caller",
          "type": "address"
        },
        {
          "indexed": false,
          "internalType": "string",
          "name": "_message",
          "type": "string"
        }
      ],
      "name": "transferACoinEvent",
      "type": "event"
    },
    {
      "anonymous": false,
      "inputs": [
        {
          "indexed": false,
          "internalType": "address",
          "name": "_from",
          "type": "address"
        },
        {
          "indexed": false,
          "internalType": "address",
          "name": "_to",
          "type": "address"
        },
        {
          "indexed": false,
          "internalType": "string",
          "name": "_tokenId",
          "type": "string"
        },
        {
          "indexed": false,
          "internalType": "uint256",
          "name": "_units",
          "type": "uint256"
        },
        {
          "indexed": false,
          "internalType": "uint256",
          "name": "_amount",
          "type": "uint256"
        },
        {
          "indexed": false,
          "internalType": "string",
          "name": "_message",
          "type": "string"
        }
      ],
      "name": "transferNftShareEvent",
      "type": "event"
    },
    {
      "anonymous": false,
      "inputs": [
        {
          "indexed": false,
          "internalType": "address",
          "name": "_from",
          "type": "address"
        },
        {
          "indexed": false,
          "internalType": "address",
          "name": "_to",
          "type": "address"
        },
        {
          "indexed": false,
          "internalType": "string",
          "name": "_tokenId",
          "type": "string"
        },
        {
          "indexed": false,
          "internalType": "uint256",
          "name": "_units",
          "type": "uint256"
        },
        {
          "indexed": false,
          "internalType": "string",
          "name": "_message",
          "type": "string"
        }
      ],
      "name": "transferTokenEvent",
      "type": "event"
    },
    {
      "anonymous": false,
      "inputs": [
        {
          "indexed": false,
          "internalType": "uint256",
          "name": "_balance",
          "type": "uint256"
        },
        {
          "indexed": false,
          "internalType": "address payable",
          "name": "_caller",
          "type": "address"
        },
        {
          "indexed": false,
          "internalType": "string",
          "name": "_message",
          "type": "string"
        }
      ],
      "name": "unitsOwnedOfATokenEvent",
      "type": "event"
    },
    {
      "inputs": [],
      "name": "decimals",
      "outputs": [
        {
          "internalType": "uint8",
          "name": "",
          "type": "uint8"
        }
      ],
      "stateMutability": "view",
      "type": "function"
    },
    {
      "inputs": [],
      "name": "name",
      "outputs": [
        {
          "internalType": "string",
          "name": "",
          "type": "string"
        }
      ],
      "stateMutability": "view",
      "type": "function"
    },
    {
      "inputs": [],
      "name": "symbol",
      "outputs": [
        {
          "internalType": "string",
          "name": "",
          "type": "string"
        }
      ],
      "stateMutability": "view",
      "type": "function"
    },
    {
      "inputs": [],
      "name": "tokenTotalSupply",
      "outputs": [
        {
          "internalType": "uint256",
          "name": "",
          "type": "uint256"
        }
      ],
      "stateMutability": "view",
      "type": "function"
    },
    {
      "inputs": [],
      "name": "getAcoinTotalSupply",
      "outputs": [
        {
          "internalType": "uint256",
          "name": "",
          "type": "uint256"
        }
      ],
      "stateMutability": "view",
      "type": "function"
    },
    {
      "inputs": [
        {
          "internalType": "address",
          "name": "acoinOwner",
          "type": "address"
        }
      ],
      "name": "acoinBalanceOf",
      "outputs": [
        {
          "internalType": "uint256",
          "name": "",
          "type": "uint256"
        }
      ],
      "stateMutability": "view",
      "type": "function"
    },
    {
      "inputs": [
        {
          "internalType": "address",
          "name": "account",
          "type": "address"
        },
        {
          "internalType": "uint256",
          "name": "numACoins",
          "type": "uint256"
        },
        {
          "internalType": "address payable",
          "name": "_caller",
          "type": "address"
        }
      ],
      "name": "buyACoin",
      "outputs": [],
      "stateMutability": "payable",
      "type": "function"
    },
    {
      "inputs": [
        {
          "internalType": "address",
          "name": "account",
          "type": "address"
        },
        {
          "internalType": "uint256",
          "name": "numACoins",
          "type": "uint256"
        },
        {
          "internalType": "address payable",
          "name": "_caller",
          "type": "address"
        }
      ],
      "name": "buyACoinINR",
      "outputs": [],
      "stateMutability": "payable",
      "type": "function"
    },
    {
      "inputs": [
        {
          "internalType": "address payable",
          "name": "account",
          "type": "address"
        },
        {
          "internalType": "uint256",
          "name": "numACoins",
          "type": "uint256"
        },
        {
          "internalType": "address payable",
          "name": "_caller",
          "type": "address"
        }
      ],
      "name": "burnACoin",
      "outputs": [],
      "stateMutability": "payable",
      "type": "function"
    },
    {
      "inputs": [
        {
          "internalType": "address payable",
          "name": "account",
          "type": "address"
        },
        {
          "internalType": "uint256",
          "name": "numACoins",
          "type": "uint256"
        },
        {
          "internalType": "address payable",
          "name": "_caller",
          "type": "address"
        }
      ],
      "name": "burnACoinINR",
      "outputs": [],
      "stateMutability": "payable",
      "type": "function"
    },
    {
      "inputs": [
        {
          "internalType": "address",
          "name": "sender",
          "type": "address"
        },
        {
          "internalType": "address",
          "name": "receiver",
          "type": "address"
        },
        {
          "internalType": "uint256",
          "name": "numACoins",
          "type": "uint256"
        },
        {
          "internalType": "address payable",
          "name": "_caller",
          "type": "address"
        }
      ],
      "name": "transferACoin",
      "outputs": [
        {
          "internalType": "bool",
          "name": "",
          "type": "bool"
        }
      ],
      "stateMutability": "nonpayable",
      "type": "function"
    },
    {
      "inputs": [
        {
          "internalType": "string",
          "name": "_tokenId",
          "type": "string"
        }
      ],
      "name": "divisibilityOfAToken",
      "outputs": [
        {
          "internalType": "uint256",
          "name": "_divisibility",
          "type": "uint256"
        }
      ],
      "stateMutability": "view",
      "type": "function"
    },
    {
      "inputs": [
        {
          "internalType": "string[]",
          "name": "_tokenIds",
          "type": "string[]"
        },
        {
          "internalType": "address[]",
          "name": "_ownerAddresses",
          "type": "address[]"
        }
      ],
      "name": "divisibilityOfTokens",
      "outputs": [
        {
          "internalType": "uint256[]",
          "name": "_divisiblities",
          "type": "uint256[]"
        }
      ],
      "stateMutability": "view",
      "type": "function"
    },
    {
      "inputs": [],
      "name": "totalSupplyView",
      "outputs": [
        {
          "internalType": "uint256",
          "name": "_totalSupply",
          "type": "uint256"
        }
      ],
      "stateMutability": "view",
      "type": "function"
    },
    {
      "inputs": [
        {
          "internalType": "address",
          "name": "_owner",
          "type": "address"
        },
        {
          "internalType": "string",
          "name": "_tokenId",
          "type": "string"
        }
      ],
      "name": "unitsOwnedOfAToken",
      "outputs": [
        {
          "internalType": "uint256",
          "name": "_balance",
          "type": "uint256"
        }
      ],
      "stateMutability": "view",
      "type": "function"
    },
    {
      "inputs": [
        {
          "internalType": "address",
          "name": "_owner",
          "type": "address"
        },
        {
          "internalType": "string",
          "name": "_tokenId",
          "type": "string"
        },
        {
          "internalType": "uint256",
          "name": "_noOfShares",
          "type": "uint256"
        },
        {
          "internalType": "address payable",
          "name": "_caller",
          "type": "address"
        }
      ],
      "name": "mint",
      "outputs": [],
      "stateMutability": "nonpayable",
      "type": "function"
    },
    {
      "inputs": [
        {
          "internalType": "address",
          "name": "_from",
          "type": "address"
        },
        {
          "internalType": "address",
          "name": "_to",
          "type": "address"
        },
        {
          "internalType": "string",
          "name": "_tokenId",
          "type": "string"
        },
        {
          "internalType": "uint256",
          "name": "_units",
          "type": "uint256"
        },
        {
          "internalType": "uint256",
          "name": "_price",
          "type": "uint256"
        }
      ],
      "name": "transferToken",
      "outputs": [],
      "stateMutability": "nonpayable",
      "type": "function"
    },
    {
      "inputs": [
        {
          "internalType": "address",
          "name": "_from",
          "type": "address"
        },
        {
          "internalType": "address",
          "name": "_to",
          "type": "address"
        },
        {
          "internalType": "string",
          "name": "_tokenId",
          "type": "string"
        },
        {
          "internalType": "uint256",
          "name": "_units",
          "type": "uint256"
        },
        {
          "internalType": "uint256",
          "name": "_price",
          "type": "uint256"
        },
        {
          "internalType": "uint256",
          "name": "_amount",
          "type": "uint256"
        }
      ],
      "name": "transferNftShare",
      "outputs": [],
      "stateMutability": "nonpayable",
      "type": "function"
    },
    {
      "inputs": [
        {
          "internalType": "address",
          "name": "_from",
          "type": "address"
        },
        {
          "internalType": "address",
          "name": "_to",
          "type": "address"
        },
        {
          "internalType": "string",
          "name": "_tokenId",
          "type": "string"
        },
        {
          "internalType": "uint256",
          "name": "_units",
          "type": "uint256"
        }
      ],
      "name": "getPrice",
      "outputs": [
        {
          "internalType": "uint256",
          "name": "",
          "type": "uint256"
        }
      ],
      "stateMutability": "view",
      "type": "function"
    }
  ],
  "bytecode": "0x60806040526000600281905550600060088190555033600360006101000a81548173ffffffffffffffffffffffffffffffffffffffff021916908373ffffffffffffffffffffffffffffffffffffffff160217905550612cd1806100646000396000f3fe6080604052600436106101145760003560e01c80638b652d17116100a0578063cc2da39811610064578063cc2da3981461037d578063da32fcc8146103a6578063dcecd152146103e3578063edc6fb6d14610420578063f7abab9e1461044957610114565b80638b652d171461027f57806395d89b411461029b578063a5007841146102c6578063b38fd86614610303578063bb559b1b1461034057610114565b8063313ce567116100e7578063313ce567146101c8578063494b9d89146101f3578063667e686e1461021c5780637898cd18146102385780637f11f4481461026357610114565b806306fdde03146101195780630e4156ed146101445780631fdb3b991461016f57806327978d84146101ac575b600080fd5b34801561012557600080fd5b5061012e610474565b60405161013b9190611823565b60405180910390f35b34801561015057600080fd5b506101596104ad565b604051610166919061185e565b60405180910390f35b34801561017b57600080fd5b5061019660048036038101906101919190611955565b6104b7565b6040516101a391906119d7565b60405180910390f35b6101c660048036038101906101c191906119f2565b610673565b005b3480156101d457600080fd5b506101dd610761565b6040516101ea9190611a61565b60405180910390f35b3480156101ff57600080fd5b5061021a60048036038101906102159190611bb1565b610766565b005b61023660048036038101906102319190611c5a565b610a60565b005b34801561024457600080fd5b5061024d610b99565b60405161025a919061185e565b60405180910390f35b61027d600480360381019061027891906119f2565b610ba3565b005b61029960048036038101906102949190611c5a565b610cfa565b005b3480156102a757600080fd5b506102b0610e7a565b6040516102bd9190611823565b60405180910390f35b3480156102d257600080fd5b506102ed60048036038101906102e89190611e56565b610eb3565b6040516102fa9190611f8c565b60405180910390f35b34801561030f57600080fd5b5061032a60048036038101906103259190611fae565b610fdc565b604051610337919061185e565b60405180910390f35b34801561034c57600080fd5b5061036760048036038101906103629190612031565b6110d0565b604051610374919061185e565b60405180910390f35b34801561038957600080fd5b506103a4600480360381019061039f919061208d565b611136565b005b3480156103b257600080fd5b506103cd60048036038101906103c89190612124565b6112bc565b6040516103da919061185e565b60405180910390f35b3480156103ef57600080fd5b5061040a60048036038101906104059190612151565b611304565b604051610417919061185e565b60405180910390f35b34801561042c57600080fd5b506104476004803603810190610442919061219a565b61132c565b005b34801561045557600080fd5b5061045e611472565b60405161046b919061185e565b60405180910390f35b6040518060400160405280600581526020017f41436f696e00000000000000000000000000000000000000000000000000000081525081565b6000600254905090565b60008060008673ffffffffffffffffffffffffffffffffffffffff1673ffffffffffffffffffffffffffffffffffffffff1681526020019081526020016000205483111561050457600080fd5b610555836000808873ffffffffffffffffffffffffffffffffffffffff1673ffffffffffffffffffffffffffffffffffffffff1681526020019081526020016000205461147890919063ffffffff16565b6000808773ffffffffffffffffffffffffffffffffffffffff1673ffffffffffffffffffffffffffffffffffffffff168152602001908152602001600020819055506105e8836000808773ffffffffffffffffffffffffffffffffffffffff1673ffffffffffffffffffffffffffffffffffffffff1681526020019081526020016000205461149f90919063ffffffff16565b6000808673ffffffffffffffffffffffffffffffffffffffff1673ffffffffffffffffffffffffffffffffffffffff168152602001908152602001600020819055507f6992faa82ee29db844a27cdd697868a4945bd323777aec54f05f6f22f0bc7faa8585858560405161065f9493929190612287565b60405180910390a160019050949350505050565b6106c4826000808673ffffffffffffffffffffffffffffffffffffffff1673ffffffffffffffffffffffffffffffffffffffff1681526020019081526020016000205461149f90919063ffffffff16565b6000808573ffffffffffffffffffffffffffffffffffffffff1673ffffffffffffffffffffffffffffffffffffffff1681526020019081526020016000208190555061071b8260025461149f90919063ffffffff16565b6002819055507fbede3305fe481e413eaade53b312c675c1175b3d4af6f726955e7d804490b3878383836040516107549392919061232b565b60405180910390a1505050565b601281565b82600460008873ffffffffffffffffffffffffffffffffffffffff1673ffffffffffffffffffffffffffffffffffffffff168152602001908152602001600020856040516107b491906123b1565b90815260200160405180910390205410156107ce57600080fd5b6000808673ffffffffffffffffffffffffffffffffffffffff1673ffffffffffffffffffffffffffffffffffffffff1681526020019081526020016000205481111561081957600080fd5b61086a816000808873ffffffffffffffffffffffffffffffffffffffff1673ffffffffffffffffffffffffffffffffffffffff1681526020019081526020016000205461147890919063ffffffff16565b6000808773ffffffffffffffffffffffffffffffffffffffff1673ffffffffffffffffffffffffffffffffffffffff168152602001908152602001600020819055506108fd816000808973ffffffffffffffffffffffffffffffffffffffff1673ffffffffffffffffffffffffffffffffffffffff1681526020019081526020016000205461149f90919063ffffffff16565b6000808873ffffffffffffffffffffffffffffffffffffffff1673ffffffffffffffffffffffffffffffffffffffff1681526020019081526020016000208190555081600160008873ffffffffffffffffffffffffffffffffffffffff1673ffffffffffffffffffffffffffffffffffffffff16815260200190815260200160002060008773ffffffffffffffffffffffffffffffffffffffff1673ffffffffffffffffffffffffffffffffffffffff168152602001908152602001600020856040516109ca91906123b1565b90815260200160405180910390206000858152602001908152602001600020819055506109f88685856114cb565b610a0386858561157d565b610a0e85858561162f565b610a198585856116e1565b7f6c6797e4223e7d8ad8e4ec0effd7eee38489e936f46c2fccd11a1afc8ff17fb18686868685604051610a50959493929190612414565b60405180910390a1505050505050565b816000808573ffffffffffffffffffffffffffffffffffffffff1673ffffffffffffffffffffffffffffffffffffffff168152602001908152602001600020541015610aab57600080fd5b610afc826000808673ffffffffffffffffffffffffffffffffffffffff1673ffffffffffffffffffffffffffffffffffffffff1681526020019081526020016000205461147890919063ffffffff16565b6000808573ffffffffffffffffffffffffffffffffffffffff1673ffffffffffffffffffffffffffffffffffffffff16815260200190815260200160002081905550610b538260025461147890919063ffffffff16565b6002819055507f8e816e6fd99201796ba50f4a40037bc93da03367d6065eab033cad31200c0074838383604051610b8c9392919061252c565b60405180910390a1505050565b6000600854905090565b610bf4826000808673ffffffffffffffffffffffffffffffffffffffff1673ffffffffffffffffffffffffffffffffffffffff1681526020019081526020016000205461149f90919063ffffffff16565b6000808573ffffffffffffffffffffffffffffffffffffffff1673ffffffffffffffffffffffffffffffffffffffff16815260200190815260200160002081905550610c4b8260025461149f90919063ffffffff16565b600281905550600360009054906101000a900473ffffffffffffffffffffffffffffffffffffffff1673ffffffffffffffffffffffffffffffffffffffff166108fc349081150290604051600060405180830381858888f19350505050158015610cb9573d6000803e3d6000fd5b507ff316e092b0518493864304254ed96b5deadf34e2653c7fd788885c4032598762838383604051610ced939291906125c2565b60405180910390a1505050565b816000808573ffffffffffffffffffffffffffffffffffffffff1673ffffffffffffffffffffffffffffffffffffffff168152602001908152602001600020541015610d4557600080fd5b610d96826000808673ffffffffffffffffffffffffffffffffffffffff1673ffffffffffffffffffffffffffffffffffffffff1681526020019081526020016000205461147890919063ffffffff16565b6000808573ffffffffffffffffffffffffffffffffffffffff1673ffffffffffffffffffffffffffffffffffffffff16815260200190815260200160002081905550610ded8260025461147890919063ffffffff16565b6002819055508273ffffffffffffffffffffffffffffffffffffffff166108fc349081150290604051600060405180830381858888f19350505050158015610e39573d6000803e3d6000fd5b507f6ec61e14a95cf5c673e41b0b4c2b336914e7f7fc7ec0d27d24cdc75c309fc0f5838383604051610e6d93929190612658565b60405180910390a1505050565b6040518060400160405280600581526020017f41434e465400000000000000000000000000000000000000000000000000000081525081565b60606000835167ffffffffffffffff811115610ed257610ed1611a86565b5b604051908082528060200260200182016040528015610f005781602001602082028036833780820191505090505b50905060005b8451811015610fd1576005858281518110610f2457610f236126a2565b5b6020026020010151604051610f3991906123b1565b90815260200160405180910390206000858381518110610f5c57610f5b6126a2565b5b602002602001015173ffffffffffffffffffffffffffffffffffffffff1673ffffffffffffffffffffffffffffffffffffffff16815260200190815260200160002054828281518110610fb257610fb16126a2565b5b6020026020010181815250508080610fc990612700565b915050610f06565b508091505092915050565b60008260011515600682604051610ff391906123b1565b908152602001604051809103902060009054906101000a900460ff1615151461101b57600080fd5b600160008773ffffffffffffffffffffffffffffffffffffffff1673ffffffffffffffffffffffffffffffffffffffff16815260200190815260200160002060008673ffffffffffffffffffffffffffffffffffffffff1673ffffffffffffffffffffffffffffffffffffffff168152602001908152602001600020846040516110a591906123b1565b9081526020016040518091039020600084815260200190815260200160002054915050949350505050565b6000600460008473ffffffffffffffffffffffffffffffffffffffff1673ffffffffffffffffffffffffffffffffffffffff1681526020019081526020016000208260405161111f91906123b1565b908152602001604051809103902054905092915050565b81600460008773ffffffffffffffffffffffffffffffffffffffff1673ffffffffffffffffffffffffffffffffffffffff1681526020019081526020016000208460405161118491906123b1565b908152602001604051809103902054101561119e57600080fd5b80600160008773ffffffffffffffffffffffffffffffffffffffff1673ffffffffffffffffffffffffffffffffffffffff16815260200190815260200160002060008673ffffffffffffffffffffffffffffffffffffffff1673ffffffffffffffffffffffffffffffffffffffff1681526020019081526020016000208460405161122991906123b1565b90815260200160405180910390206000848152602001908152602001600020819055506112578584846114cb565b61126285848461157d565b61126d84848461162f565b6112788484846116e1565b7f3c4d3746385ed80eba6f5197c1585791c2b6b82c6df5ee058898bbd7123c155a858585856040516112ad94939291906127ba565b60405180910390a15050505050565b60008060008373ffffffffffffffffffffffffffffffffffffffff1673ffffffffffffffffffffffffffffffffffffffff168152602001908152602001600020549050919050565b600060078260405161131691906123b1565b9081526020016040518091039020549050919050565b826000151560068260405161134191906123b1565b908152602001604051809103902060009054906101000a900460ff1615151461136957600080fd5b8260078560405161137a91906123b1565b908152602001604051809103902081905550600160068560405161139e91906123b1565b908152602001604051809103902060006101000a81548160ff0219169083151502179055506113ec85856007876040516113d891906123b1565b90815260200160405180910390205461162f565b611415858560078760405161140191906123b1565b9081526020016040518091039020546116e1565b60016008546114249190612819565b6008819055507f085d194830b068dc5452abc86ba006ddf00bc2b834246f02368b02f35af93eb2858585600854866040516114639594939291906128bf565b60405180910390a15050505050565b60085481565b60008282111561148b5761148a61292c565b5b8183611497919061295b565b905092915050565b60008082846114ae9190612819565b9050838110156114c1576114c061292c565b5b8091505092915050565b80600460008573ffffffffffffffffffffffffffffffffffffffff1673ffffffffffffffffffffffffffffffffffffffff1681526020019081526020016000208360405161151991906123b1565b90815260200160405180910390206000828254611536919061295b565b925050819055507fc5ea0978ea025b7ba276ad87c92312b49f89b92e270d1a144892e691aaa5199483838360405161157093929190612a01565b60405180910390a1505050565b8060058360405161158e91906123b1565b908152602001604051809103902060008573ffffffffffffffffffffffffffffffffffffffff1673ffffffffffffffffffffffffffffffffffffffff16815260200190815260200160002060008282546115e8919061295b565b925050819055507fb96797672c131c6b628956baf6f18617d3259c5bc34f9fb212e0dee0be1f85d283838360405161162293929190612ac4565b60405180910390a1505050565b80600460008573ffffffffffffffffffffffffffffffffffffffff1673ffffffffffffffffffffffffffffffffffffffff1681526020019081526020016000208360405161167d91906123b1565b9081526020016040518091039020600082825461169a9190612819565b925050819055507f3bae02c124e066bd127e74308d39367a5551b27ae5e0fc40a1995b281b515c478383836040516116d493929190612b87565b60405180910390a1505050565b806005836040516116f291906123b1565b908152602001604051809103902060008573ffffffffffffffffffffffffffffffffffffffff1673ffffffffffffffffffffffffffffffffffffffff168152602001908152602001600020600082825461174c9190612819565b925050819055507f654a7fac15156d451ea50ecbbec11c6cadf9780d37f91ad27c05a7175a838de083838360405161178693929190612c4a565b60405180910390a1505050565b600081519050919050565b600082825260208201905092915050565b60005b838110156117cd5780820151818401526020810190506117b2565b60008484015250505050565b6000601f19601f8301169050919050565b60006117f582611793565b6117ff818561179e565b935061180f8185602086016117af565b611818816117d9565b840191505092915050565b6000602082019050818103600083015261183d81846117ea565b905092915050565b6000819050919050565b61185881611845565b82525050565b6000602082019050611873600083018461184f565b92915050565b6000604051905090565b600080fd5b600080fd5b600073ffffffffffffffffffffffffffffffffffffffff82169050919050565b60006118b88261188d565b9050919050565b6118c8816118ad565b81146118d357600080fd5b50565b6000813590506118e5816118bf565b92915050565b6118f481611845565b81146118ff57600080fd5b50565b600081359050611911816118eb565b92915050565b60006119228261188d565b9050919050565b61193281611917565b811461193d57600080fd5b50565b60008135905061194f81611929565b92915050565b6000806000806080858703121561196f5761196e611883565b5b600061197d878288016118d6565b945050602061198e878288016118d6565b935050604061199f87828801611902565b92505060606119b087828801611940565b91505092959194509250565b60008115159050919050565b6119d1816119bc565b82525050565b60006020820190506119ec60008301846119c8565b92915050565b600080600060608486031215611a0b57611a0a611883565b5b6000611a19868287016118d6565b9350506020611a2a86828701611902565b9250506040611a3b86828701611940565b9150509250925092565b600060ff82169050919050565b611a5b81611a45565b82525050565b6000602082019050611a766000830184611a52565b92915050565b600080fd5b600080fd5b7f4e487b7100000000000000000000000000000000000000000000000000000000600052604160045260246000fd5b611abe826117d9565b810181811067ffffffffffffffff82111715611add57611adc611a86565b5b80604052505050565b6000611af0611879565b9050611afc8282611ab5565b919050565b600067ffffffffffffffff821115611b1c57611b1b611a86565b5b611b25826117d9565b9050602081019050919050565b82818337600083830152505050565b6000611b54611b4f84611b01565b611ae6565b905082815260208101848484011115611b7057611b6f611a81565b5b611b7b848285611b32565b509392505050565b600082601f830112611b9857611b97611a7c565b5b8135611ba8848260208601611b41565b91505092915050565b60008060008060008060c08789031215611bce57611bcd611883565b5b6000611bdc89828a016118d6565b9650506020611bed89828a016118d6565b955050604087013567ffffffffffffffff811115611c0e57611c0d611888565b5b611c1a89828a01611b83565b9450506060611c2b89828a01611902565b9350506080611c3c89828a01611902565b92505060a0611c4d89828a01611902565b9150509295509295509295565b600080600060608486031215611c7357611c72611883565b5b6000611c8186828701611940565b9350506020611c9286828701611902565b9250506040611ca386828701611940565b9150509250925092565b600067ffffffffffffffff821115611cc857611cc7611a86565b5b602082029050602081019050919050565b600080fd5b6000611cf1611cec84611cad565b611ae6565b90508083825260208201905060208402830185811115611d1457611d13611cd9565b5b835b81811015611d5b57803567ffffffffffffffff811115611d3957611d38611a7c565b5b808601611d468982611b83565b85526020850194505050602081019050611d16565b5050509392505050565b600082601f830112611d7a57611d79611a7c565b5b8135611d8a848260208601611cde565b91505092915050565b600067ffffffffffffffff821115611dae57611dad611a86565b5b602082029050602081019050919050565b6000611dd2611dcd84611d93565b611ae6565b90508083825260208201905060208402830185811115611df557611df4611cd9565b5b835b81811015611e1e5780611e0a88826118d6565b845260208401935050602081019050611df7565b5050509392505050565b600082601f830112611e3d57611e3c611a7c565b5b8135611e4d848260208601611dbf565b91505092915050565b60008060408385031215611e6d57611e6c611883565b5b600083013567ffffffffffffffff811115611e8b57611e8a611888565b5b611e9785828601611d65565b925050602083013567ffffffffffffffff811115611eb857611eb7611888565b5b611ec485828601611e28565b9150509250929050565b600081519050919050565b600082825260208201905092915050565b6000819050602082019050919050565b611f0381611845565b82525050565b6000611f158383611efa565b60208301905092915050565b6000602082019050919050565b6000611f3982611ece565b611f438185611ed9565b9350611f4e83611eea565b8060005b83811015611f7f578151611f668882611f09565b9750611f7183611f21565b925050600181019050611f52565b5085935050505092915050565b60006020820190508181036000830152611fa68184611f2e565b905092915050565b60008060008060808587031215611fc857611fc7611883565b5b6000611fd6878288016118d6565b9450506020611fe7878288016118d6565b935050604085013567ffffffffffffffff81111561200857612007611888565b5b61201487828801611b83565b925050606061202587828801611902565b91505092959194509250565b6000806040838503121561204857612047611883565b5b6000612056858286016118d6565b925050602083013567ffffffffffffffff81111561207757612076611888565b5b61208385828601611b83565b9150509250929050565b600080600080600060a086880312156120a9576120a8611883565b5b60006120b7888289016118d6565b95505060206120c8888289016118d6565b945050604086013567ffffffffffffffff8111156120e9576120e8611888565b5b6120f588828901611b83565b935050606061210688828901611902565b925050608061211788828901611902565b9150509295509295909350565b60006020828403121561213a57612139611883565b5b6000612148848285016118d6565b91505092915050565b60006020828403121561216757612166611883565b5b600082013567ffffffffffffffff81111561218557612184611888565b5b61219184828501611b83565b91505092915050565b600080600080608085870312156121b4576121b3611883565b5b60006121c2878288016118d6565b945050602085013567ffffffffffffffff8111156121e3576121e2611888565b5b6121ef87828801611b83565b935050604061220087828801611902565b925050606061221187828801611940565b91505092959194509250565b612226816118ad565b82525050565b61223581611917565b82525050565b7f7472616e73666572436f696e0000000000000000000000000000000000000000600082015250565b6000612271600c8361179e565b915061227c8261223b565b602082019050919050565b600060a08201905061229c600083018761221d565b6122a9602083018661221d565b6122b6604083018561184f565b6122c3606083018461222c565b81810360808301526122d481612264565b905095945050505050565b7f62757941436f696e494e52000000000000000000000000000000000000000000600082015250565b6000612315600b8361179e565b9150612320826122df565b602082019050919050565b6000608082019050612340600083018661221d565b61234d602083018561184f565b61235a604083018461222c565b818103606083015261236b81612308565b9050949350505050565b600081905092915050565b600061238b82611793565b6123958185612375565b93506123a58185602086016117af565b80840191505092915050565b60006123bd8284612380565b915081905092915050565b7f7472616e736665724e6674536861726500000000000000000000000000000000600082015250565b60006123fe60108361179e565b9150612409826123c8565b602082019050919050565b600060c082019050612429600083018861221d565b612436602083018761221d565b818103604083015261244881866117ea565b9050612457606083018561184f565b612464608083018461184f565b81810360a0830152612475816123f1565b90509695505050505050565b6000819050919050565b60006124a66124a161249c8461188d565b612481565b61188d565b9050919050565b60006124b88261248b565b9050919050565b60006124ca826124ad565b9050919050565b6124da816124bf565b82525050565b7f6275726e41436f696e494e520000000000000000000000000000000000000000600082015250565b6000612516600c8361179e565b9150612521826124e0565b602082019050919050565b600060808201905061254160008301866124d1565b61254e602083018561184f565b61255b604083018461222c565b818103606083015261256c81612509565b9050949350505050565b7f62757941436f696e000000000000000000000000000000000000000000000000600082015250565b60006125ac60088361179e565b91506125b782612576565b602082019050919050565b60006080820190506125d7600083018661221d565b6125e4602083018561184f565b6125f1604083018461222c565b81810360608301526126028161259f565b9050949350505050565b7f6275726e41436f696e0000000000000000000000000000000000000000000000600082015250565b600061264260098361179e565b915061264d8261260c565b602082019050919050565b600060808201905061266d60008301866124d1565b61267a602083018561184f565b612687604083018461222c565b818103606083015261269881612635565b9050949350505050565b7f4e487b7100000000000000000000000000000000000000000000000000000000600052603260045260246000fd5b7f4e487b7100000000000000000000000000000000000000000000000000000000600052601160045260246000fd5b600061270b82611845565b91507fffffffffffffffffffffffffffffffffffffffffffffffffffffffffffffffff820361273d5761273c6126d1565b5b600182019050919050565b7f7472616e73666572202d207472616e73666572207061727473206f662061207460008201527f6f6b656e20746f20616e6f746865722075736572000000000000000000000000602082015250565b60006127a460348361179e565b91506127af82612748565b604082019050919050565b600060a0820190506127cf600083018761221d565b6127dc602083018661221d565b81810360408301526127ee81856117ea565b90506127fd606083018461184f565b818103608083015261280e81612797565b905095945050505050565b600061282482611845565b915061282f83611845565b9250828201905080821115612847576128466126d1565b5b92915050565b7f6d696e74202d204d696e74696e67206772616e74732031303025206f6620746860008201527f6520746f6b656e20746f2061206e6577206f776e657200000000000000000000602082015250565b60006128a960368361179e565b91506128b48261284d565b604082019050919050565b600060c0820190506128d4600083018861221d565b81810360208301526128e681876117ea565b90506128f5604083018661184f565b612902606083018561184f565b61290f608083018461222c565b81810360a08301526129208161289c565b90509695505050505050565b7f4e487b7100000000000000000000000000000000000000000000000000000000600052600160045260246000fd5b600061296682611845565b915061297183611845565b9250828203905081811115612989576129886126d1565b5b92915050565b7f5f72656d6f7665536861726546726f6d4c6173744f776e6572202d2052656d6f60008201527f766520746f6b656e20756e6974732066726f6d206c617374206f776e65720000602082015250565b60006129eb603e8361179e565b91506129f68261298f565b604082019050919050565b6000608082019050612a16600083018661221d565b8181036020830152612a2881856117ea565b9050612a37604083018461184f565b8181036060830152612a48816129de565b9050949350505050565b7f5f72656d6f76654c6173744f776e6572486f6c64696e677346726f6d546f6b6560008201527f6e202d2052656d6f766520756e6974732066726f6d206c617374206f776e6572602082015250565b6000612aae60408361179e565b9150612ab982612a52565b604082019050919050565b6000608082019050612ad9600083018661221d565b8181036020830152612aeb81856117ea565b9050612afa604083018461184f565b8181036060830152612b0b81612aa1565b9050949350505050565b7f5f6164645368617265546f4e65774f776e6572202d2041646420746f6b656e2060008201527f756e69747320746f206e6577206f776e65720000000000000000000000000000602082015250565b6000612b7160328361179e565b9150612b7c82612b15565b604082019050919050565b6000608082019050612b9c600083018661221d565b8181036020830152612bae81856117ea565b9050612bbd604083018461184f565b8181036060830152612bce81612b64565b9050949350505050565b7f5f6164644e65774f776e6572486f6c64696e6773546f546f6b656e202d20416460008201527f642074686520756e69747320746f206e6577206f776e65720000000000000000602082015250565b6000612c3460388361179e565b9150612c3f82612bd8565b604082019050919050565b6000608082019050612c5f600083018661221d565b8181036020830152612c7181856117ea565b9050612c80604083018461184f565b8181036060830152612c9181612c27565b905094935050505056fea26469706673582212201e8b173e78aee78968a4f0fd6ddef33b01e8ec036a42a413671e6de358be0ec764736f6c63430008100033",
  "immutableReferences": {},
  "source": "// SPDX-License-Identifier: MIT\r\npragma solidity ^0.8.9;\r\n\r\ncontract DivisibleNFTs {\r\n    using SafeMath for uint256;\r\n\r\n    // ----------------------- Variables for ACoin ------------------------\r\n    string public constant name = \"ACoin\"; // Name of the coin\r\n    string public constant symbol = \"ACNFT\"; // Ticker for ACoin\r\n    uint8 public constant decimals = 18; // Precision of use for the ACoin\r\n    mapping(address => uint256) acoinBalances; // ACoin balances of the Traders\r\n    mapping(address => mapping(address => mapping(string => mapping(uint => uint)))) confirmedPrice;\r\n    uint256 acoinTotalSupply; // Total supply of the ACoin\r\n    address payable owner;\r\n\r\n    // ------------------------------ All Events ------------------------------\r\n\tevent unitsOwnedOfATokenEvent(uint256  _balance, address payable _caller, string _message);\r\n\r\n\tevent divisibilityEvent(uint256 _divisibility, address payable _caller, string _message);\r\n\r\n\tevent mintEvent(address _owner, string _tokenId, uint _noOfShares, uint _tokenTotalSupply, address payable _caller, string _message);\r\n\r\n\tevent transferTokenEvent(address _from, address _to, string _tokenId, uint _units, string _message);\r\n\r\n\tevent transferNftShareEvent(address _from, address _to, string _tokenId, uint _units, uint _amount, string _message);\r\n\r\n\tevent totalSupplyEvent(uint256 _totalSupply, address payable _caller, string _message);\r\n\r\n\tevent buyACoinEvent(address _account, uint _numACoins, address payable _caller, string _message);\r\n\r\n\tevent buyACoinINREvent(address _account, uint _numACoins, address payable _caller, string _message);\r\n\r\n\tevent burnACoinEvent(address _account, uint _numACoins, address payable _caller, string _message);\r\n\t\r\n    event burnACoinINREvent(address _account, uint _numACoins, address payable _caller, string _message);\r\n\r\n    event transferACoinEvent(address _from, address _to, uint _numACoins,  address payable _caller, string _message);\r\n\r\n\tevent getAcoinTotalSupplyEvent( uint _acoinTotalSupply, address payable _caller, string _message);\r\n\r\n\tevent acoinBalanceOfEvent(uint _acoinBalance, address payable _caller, string _message);\r\n\r\n    event removeShareEvent(address _owner, string _tokenId, uint256 _units,  string _message);\r\n\r\n    event addShareEvent(address _owner, string _tokenId, uint256 _units,  string _message);\r\n\r\n    event removeOwnerHoldingsEvent(address _owner, string _tokenId, uint256 _units,  string _message);\r\n\r\n    event addOwnerHoldingsEvent(address _owner, string _tokenId, uint256 _units,  string _message);\r\n\r\n    // ----------------------- Variables for Non Fungible Token Management------------------------\r\n\r\n    // Percentage of ownership over a token\r\n    mapping(address => mapping(string => uint256)) ownerToTokenShare;\r\n    // {user_account_address --> tokenId --> amount_holded_of_that_tokenId_by_that_address}\r\n\r\n    // How much owners have of a token\r\n    mapping(string => mapping(address => uint256)) tokenToOwnersHoldings;\r\n    // {tokenId --> user_account_address --> amount_holded_of_that_tokenId_by_that_address}\r\n\r\n    // If a token has been created\r\n    mapping(string => bool) mintedToken;\r\n    // tokenId --> returns true or false if the token with that Id is minted\r\n\r\n    // Number of equal(fungible) units that constitute a token (that a token can be divised to)\r\n    mapping(string => uint256) divisibility; // All tokens would have a different divisibilit factor\r\n    // Divisibility for each token is basically the amount of shares that NFT has\r\n\r\n    // total of managed/tracked tokens by this smart contract\r\n    uint256 public tokenTotalSupply;\r\n\r\n    // ------------------------------ Constructor ------------------------------\r\n    constructor() payable {\r\n        acoinTotalSupply = 0;\r\n\t\ttokenTotalSupply = 0;\r\n        owner = payable(msg.sender);\r\n    }\r\n\r\n    // ====================== Everything related to ACoin =========================\r\n\r\n    // ------------------------------ Modifiers ------------------------------\r\n    // Modifier to check that the caller is the owner of\r\n    // the contract.\r\n    modifier onlyOwner() {\r\n        require(\r\n            msg.sender == owner,\r\n            \"Only owner can invoke the transfer of ACoins\"\r\n        );\r\n        _;\r\n    }\r\n\r\n    // ------------------------------ View functions ------------------------------\r\n\r\n    /// @dev The total ACoins in circulation at the moment of invocation of this function\r\n    function getAcoinTotalSupply() public view returns (uint256) {\r\n\t\t// emit getAcoinTotalSupplyEvent(acoinTotalSupply, _caller, \"getAcoinTotalSupply\");\r\n        return acoinTotalSupply;\r\n    }\r\n\r\n    /// @dev The ACoin balance of that address\r\n    function acoinBalanceOf(address acoinOwner) public view returns (uint256) {\r\n\t\t// emit acoinBalanceOfEvent( acoinBalances[acoinOwner], _caller, \"acoinBalanceOf\");\r\n        return acoinBalances[acoinOwner];\r\n    }\r\n\r\n    \r\n\r\n    // ------------------------------ Core public functions ------------------------------\r\n    \r\n\t/// @dev Buying ACoin, transferring ETH to owner\r\n    function buyACoin(address account, uint numACoins, address payable _caller)\r\n\t\tpayable\r\n        public \r\n    {\r\n        acoinBalances[account] = acoinBalances[account].add(numACoins);\r\n\t\tacoinTotalSupply = acoinTotalSupply.add(numACoins);\r\n        payable(owner).transfer(msg.value);\r\n\t\t// payable(owner).transfer(numACoins);\r\n        emit buyACoinEvent(account, numACoins, _caller, \"buyACoin\");\r\n    }\r\n\r\n    /// @dev Buying ACoin, transferring INR\r\n    function buyACoinINR(address account, uint numACoins, address payable _caller)\r\n\t\tpayable\r\n        public \r\n    {\r\n        acoinBalances[account] = acoinBalances[account].add(numACoins);\r\n\t\tacoinTotalSupply = acoinTotalSupply.add(numACoins);\r\n        // payable(owner).transfer(msg.value);\r\n\t\t// payable(owner).transfer(numACoins);\r\n        emit buyACoinINREvent(account, numACoins, _caller, \"buyACoinINR\");\r\n    }\r\n\r\n\t/// @dev Withdrawing ETH from ACoin, transferring ETH to user from owner\r\n    function burnACoin(address payable account, uint numACoins, address payable _caller)\r\n\t\tpayable\r\n        public \r\n        \r\n    {\r\n\t\trequire(acoinBalances[account] >= numACoins);\r\n        acoinBalances[account] = acoinBalances[account].sub(numACoins);\r\n\t\tacoinTotalSupply = acoinTotalSupply.sub(numACoins);\r\n        payable(account).transfer(msg.value);\r\n\t\t// payable(account).transfer(numACoins);\r\n        emit burnACoinEvent(account, numACoins, _caller, \"burnACoin\");\r\n    }\r\n\r\n    /// @dev Withdrawing ETH from ACoin, transferring ETH to user from owner\r\n    function burnACoinINR(address payable account, uint numACoins, address payable _caller)\r\n\t\tpayable\r\n        public \r\n        \r\n    {\r\n\t\trequire(acoinBalances[account] >= numACoins);\r\n        acoinBalances[account] = acoinBalances[account].sub(numACoins);\r\n\t\tacoinTotalSupply = acoinTotalSupply.sub(numACoins);\r\n        // payable(account).transfer(msg.value);\r\n\t\t// payable(account).transfer(numACoins);\r\n        emit burnACoinINREvent(account, numACoins, _caller, \"burnACoinINR\");\r\n    }\r\n\t\r\n\t/// @dev Transferring ACoin from one user account to another\r\n    function transferACoin(address sender, address receiver, uint256 numACoins, address payable _caller)\r\n        public\r\n        returns (bool)\r\n    {\r\n        require(numACoins <= acoinBalances[sender]);\r\n        acoinBalances[sender] = acoinBalances[sender].sub(numACoins);\r\n        acoinBalances[receiver] = acoinBalances[receiver].add(numACoins);\r\n        emit transferACoinEvent(sender, receiver, numACoins, _caller, \"transferCoin\");\r\n        return true;\r\n    }\r\n\r\n\r\n    // ====================== Everything related to Dividing the NFT =========================\r\n    // ------------------------------ Modifiers ------------------------------\r\n\r\n    modifier onlyNonExistentToken(string memory _tokenId) {\r\n        require(mintedToken[_tokenId] == false);\r\n        _;\r\n    }\r\n\r\n    modifier onlyExistentToken(string memory _tokenId) {\r\n        require(mintedToken[_tokenId] == true);\r\n        _;\r\n    }\r\n\r\n    // ------------------------------ View functions ------------------------------\r\n\r\n    /// @dev The divisiblity amount of a token\r\n\tfunction divisibilityOfAToken(string memory _tokenId) public view returns (uint _divisibility)\r\n\t{\r\n\t\t// emit divisibilityEvent(divisibility[_tokenId], _caller, \"divisibilityOfAToken - The divisiblity amount of a token\");\r\n\t    return divisibility[_tokenId];\r\n\t}\r\n\r\n    function divisibilityOfTokens(string[] memory _tokenIds, address[] memory _ownerAddresses) public view returns (uint[] memory _divisiblities) {\r\n        uint[] memory divisiblities = new uint[](_tokenIds.length);\r\n        for(uint i = 0; i < _tokenIds.length; i++) {\r\n            divisiblities[i] = tokenToOwnersHoldings[_tokenIds[i]][_ownerAddresses[i]];\r\n        }\r\n\r\n        return divisiblities;\r\n    }\r\n\r\n\t/// @dev The amount of a totalSupply\r\n    // Earlier totalSupplyView()\r\n\tfunction totalSupplyView() public view returns (uint _totalSupply)\r\n\t{\r\n\t\t// emit totalSupplyEvent(tokenTotalSupply, _caller, \"totalSupplyView\");\r\n\t    return tokenTotalSupply;\r\n\t}\r\n\r\n    /// @dev The balance an owner have of a token\r\n    function unitsOwnedOfAToken(address _owner, string memory _tokenId)\r\n        public view\r\n        returns (uint256 _balance)\r\n    {\r\n\t\t// emit unitsOwnedOfATokenEvent(ownerToTokenShare[_owner][_tokenId], _caller, \"unitsOwnedOfAToken\");\r\n        return ownerToTokenShare[_owner][_tokenId];\r\n    }\r\n\r\n    // ------------------------------ Core public functions ------------------------------\r\n\r\n    /// @dev Anybody can create a token in our example\r\n    /// @notice Minting grants 100% of the token to a new owner in our example\r\n    function mint(\r\n        address _owner,\r\n        string memory _tokenId,\r\n        uint256 _noOfShares,\r\n        address payable _caller\r\n    ) public onlyNonExistentToken(_tokenId) {\r\n\r\n        divisibility[_tokenId] = _noOfShares;\r\n\r\n        mintedToken[_tokenId] = true;\r\n\r\n        _addShareToNewOwner(_owner, _tokenId, divisibility[_tokenId]);\r\n        _addNewOwnerHoldingsToToken(_owner, _tokenId, divisibility[_tokenId]);\r\n\r\n        tokenTotalSupply = tokenTotalSupply + 1;\r\n        emit mintEvent(_owner, _tokenId, _noOfShares, tokenTotalSupply, _caller, \"mint - Minting grants 100% of the token to a new owner\");\r\n\r\n        //Minted(_owner, _tokenId); // emit event\r\n    }\r\n\r\n    /// @dev transfer parts of a token to another user\r\n    // Earlier transfer(_from, _to, _tokenId, _units)\r\n    function transferToken(\r\n        address _from,\r\n        address _to,\r\n        string memory _tokenId,\r\n        uint256 _units,\r\n        uint256 _price\r\n    ) public {\r\n        require(ownerToTokenShare[_from][_tokenId] >= _units);\r\n        // TODO should check _to address to avoid losing tokens units\r\n\r\n        confirmedPrice[_from][_to][_tokenId][_units] = _price;\r\n\r\n        _removeShareFromLastOwner(_from, _tokenId, _units);\r\n        _removeLastOwnerHoldingsFromToken(_from, _tokenId, _units);\r\n\r\n        _addShareToNewOwner(_to, _tokenId, _units);\r\n        _addNewOwnerHoldingsToToken(_to, _tokenId, _units);\r\n        emit transferTokenEvent(_from,  _to,  _tokenId,  _units, \"transfer - transfer parts of a token to another user\");\r\n\r\n        //Transfer(msg.sender, _to, _tokenId, _units); // emit event\r\n    }\r\n\r\n    function transferNftShare(\r\n        address _from,\r\n        address _to,\r\n        string memory _tokenId,\r\n        uint256 _units,\r\n        uint256 _price,\r\n        uint256 _amount\r\n    ) public {\r\n        require(ownerToTokenShare[_from][_tokenId] >= _units);\r\n        require(_amount <= acoinBalances[_to]);\r\n\r\n        acoinBalances[_to] = acoinBalances[_to].sub(_amount);\r\n        acoinBalances[_from] = acoinBalances[_from].add(_amount);\r\n        // TODO should check _to address to avoid losing tokens units\r\n\r\n        confirmedPrice[_from][_to][_tokenId][_units] = _price;\r\n\r\n        _removeShareFromLastOwner(_from, _tokenId, _units);\r\n        _removeLastOwnerHoldingsFromToken(_from, _tokenId, _units);\r\n\r\n        _addShareToNewOwner(_to, _tokenId, _units);\r\n        _addNewOwnerHoldingsToToken(_to, _tokenId, _units);\r\n        emit transferNftShareEvent( _from, _to, _tokenId, _units, _amount, \"transferNftShare\");    \r\n        \r\n    }\r\n\r\n    function getPrice(\r\n        address _from,\r\n        address _to,\r\n        string memory _tokenId,\r\n        uint256 _units\r\n    ) public view onlyExistentToken(_tokenId) returns(uint) {\r\n        \r\n        return confirmedPrice[_from][_to][_tokenId][_units];\r\n        // emit transferTokenEvent(_from,  _to,  _tokenId,  _units, _caller, \"transfer - transfer parts of a token to another user\");\r\n\r\n        //Transfer(msg.sender, _to, _tokenId, _units); // emit event\r\n    }\r\n\r\n\r\n    // ------------------------------ Helper functions (internal functions) ------------------------------\r\n\r\n    // Remove token units from last owner\r\n    function _removeShareFromLastOwner(\r\n        address _owner,\r\n        string memory _tokenId,\r\n        uint256 _units\r\n    ) internal {\r\n        ownerToTokenShare[_owner][_tokenId] -= _units;\r\n        emit removeShareEvent(_owner, _tokenId, _units, \"_removeShareFromLastOwner - Remove token units from last owner\");\r\n\r\n    }\r\n\r\n    // Add token units to new owner\r\n    function _addShareToNewOwner(\r\n        address _owner,\r\n        string memory _tokenId,\r\n        uint256 _units\r\n    ) internal {\r\n        ownerToTokenShare[_owner][_tokenId] += _units;\r\n        emit addShareEvent(_owner, _tokenId, _units, \"_addShareToNewOwner - Add token units to new owner\");\r\n\r\n    }\r\n\r\n    // Remove units from last owner\r\n    function _removeLastOwnerHoldingsFromToken(\r\n        address _owner,\r\n        string memory _tokenId,\r\n        uint256 _units\r\n    ) internal {\r\n        tokenToOwnersHoldings[_tokenId][_owner] -= _units;\r\n        emit removeOwnerHoldingsEvent(_owner, _tokenId, _units, \"_removeLastOwnerHoldingsFromToken - Remove units from last owner\");\r\n\r\n    }\r\n\r\n    // Add the units to new owner\r\n    function _addNewOwnerHoldingsToToken(\r\n        address _owner,\r\n        string memory _tokenId,\r\n        uint256 _units\r\n    ) internal {\r\n        tokenToOwnersHoldings[_tokenId][_owner] += _units;\r\n        emit addOwnerHoldingsEvent(_owner, _tokenId, _units, \"_addNewOwnerHoldingsToToken - Add the units to new owner\");\r\n\r\n    }\r\n}\r\n\r\n\r\nlibrary SafeMath {\r\n    function sub(uint256 a, uint256 b) internal pure returns (uint256) {\r\n        assert(b <= a);\r\n        return a - b;\r\n    }\r\n\r\n    function add(uint256 a, uint256 b) internal pure returns (uint256) {\r\n        uint256 c = a + b;\r\n        assert(c >= a);\r\n        return c;\r\n    }\r\n}",
  "sourcePath": "D:\\Coding\\Hackathons\\EthMumbai\\defraction-server\\blockchain\\contracts\\DivisibleNFTs.sol",
  "compiler": {
    "name": "solc",
    "version": "0.8.16+commit.07a7930e.Emscripten.clang"
  },
  "schemaVersion": "3.4.13",
  "updatedAt": "2024-03-30T15:47:30.840Z",
  "devdoc": {
    "kind": "dev",
    "methods": {
      "acoinBalanceOf(address)": {
        "details": "The ACoin balance of that address"
      },
      "burnACoin(address,uint256,address)": {
        "details": "Withdrawing ETH from ACoin, transferring ETH to user from owner"
      },
      "burnACoinINR(address,uint256,address)": {
        "details": "Withdrawing ETH from ACoin, transferring ETH to user from owner"
      },
      "buyACoin(address,uint256,address)": {
        "details": "Buying ACoin, transferring ETH to owner"
      },
      "buyACoinINR(address,uint256,address)": {
        "details": "Buying ACoin, transferring INR"
      },
      "divisibilityOfAToken(string)": {
        "details": "The divisiblity amount of a token"
      },
      "getAcoinTotalSupply()": {
        "details": "The total ACoins in circulation at the moment of invocation of this function"
      },
      "mint(address,string,uint256,address)": {
        "details": "Anybody can create a token in our example"
      },
      "totalSupplyView()": {
        "details": "The amount of a totalSupply"
      },
      "transferACoin(address,address,uint256,address)": {
        "details": "Transferring ACoin from one user account to another"
      },
      "transferToken(address,address,string,uint256,uint256)": {
        "details": "transfer parts of a token to another user"
      },
      "unitsOwnedOfAToken(address,string)": {
        "details": "The balance an owner have of a token"
      }
    },
    "version": 1
  },
  "userdoc": {
    "kind": "user",
    "methods": {
      "mint(address,string,uint256,address)": {
        "notice": "Minting grants 100% of the token to a new owner in our example"
      }
    },
    "version": 1
  }
}