{
  "contractName": "DivisibleNFTs",
  "abi": [
    {
      "inputs": [],
      "stateMutability": "payable",
      "type": "constructor",
      "payable": true
    },
    {
      "anonymous": false,
      "inputs": [
        {
          "indexed": false,
          "internalType": "uint256",
          "name": "_acoinBalance",
          "type": "uint256"
        },
        {
          "indexed": false,
          "internalType": "string",
          "name": "_message",
          "type": "string"
        }
      ],
      "name": "acoinBalanceOfEvent",
      "type": "event"
    },
    {
      "anonymous": false,
      "inputs": [
        {
          "indexed": false,
          "internalType": "address",
          "name": "_account",
          "type": "address"
        },
        {
          "indexed": false,
          "internalType": "uint256",
          "name": "_numACoins",
          "type": "uint256"
        }
      ],
      "name": "burnACoinEvent",
      "type": "event"
    },
    {
      "anonymous": false,
      "inputs": [
        {
          "indexed": false,
          "internalType": "address",
          "name": "_account",
          "type": "address"
        },
        {
          "indexed": false,
          "internalType": "uint256",
          "name": "_numACoins",
          "type": "uint256"
        }
      ],
      "name": "buyACoinEvent",
      "type": "event"
    },
    {
      "anonymous": false,
      "inputs": [
        {
          "indexed": false,
          "internalType": "uint256",
          "name": "_divisibility",
          "type": "uint256"
        },
        {
          "indexed": false,
          "internalType": "string",
          "name": "_message",
          "type": "string"
        }
      ],
      "name": "divisibilityEvent",
      "type": "event"
    },
    {
      "anonymous": false,
      "inputs": [
        {
          "indexed": false,
          "internalType": "uint256",
          "name": "_acoinTotalSupply",
          "type": "uint256"
        },
        {
          "indexed": false,
          "internalType": "string",
          "name": "_message",
          "type": "string"
        }
      ],
      "name": "getAcoinTotalSupplyEvent",
      "type": "event"
    },
    {
      "anonymous": false,
      "inputs": [
        {
          "indexed": false,
          "internalType": "address",
          "name": "_owner",
          "type": "address"
        },
        {
          "indexed": false,
          "internalType": "string",
          "name": "_tokenId",
          "type": "string"
        },
        {
          "indexed": false,
          "internalType": "uint256",
          "name": "_noOfShares",
          "type": "uint256"
        },
        {
          "indexed": false,
          "internalType": "uint256",
          "name": "_tokenTotalSupply",
          "type": "uint256"
        },
        {
          "indexed": false,
          "internalType": "string",
          "name": "_message",
          "type": "string"
        }
      ],
      "name": "mintEvent",
      "type": "event"
    },
    {
      "anonymous": false,
      "inputs": [
        {
          "indexed": false,
          "internalType": "uint256",
          "name": "_totalSupply",
          "type": "uint256"
        },
        {
          "indexed": false,
          "internalType": "string",
          "name": "_message",
          "type": "string"
        }
      ],
      "name": "totalSupplyEvent",
      "type": "event"
    },
    {
      "anonymous": false,
      "inputs": [
        {
          "indexed": false,
          "internalType": "address",
          "name": "_from",
          "type": "address"
        },
        {
          "indexed": false,
          "internalType": "address",
          "name": "_to",
          "type": "address"
        },
        {
          "indexed": false,
          "internalType": "uint256",
          "name": "_numACoins",
          "type": "uint256"
        }
      ],
      "name": "transferACoinEvent",
      "type": "event"
    },
    {
      "anonymous": false,
      "inputs": [
        {
          "indexed": false,
          "internalType": "address",
          "name": "_from",
          "type": "address"
        },
        {
          "indexed": false,
          "internalType": "address",
          "name": "_to",
          "type": "address"
        },
        {
          "indexed": false,
          "internalType": "string",
          "name": "_tokenId",
          "type": "string"
        },
        {
          "indexed": false,
          "internalType": "uint256",
          "name": "_units",
          "type": "uint256"
        },
        {
          "indexed": false,
          "internalType": "string",
          "name": "_message",
          "type": "string"
        }
      ],
      "name": "transferTokenEvent",
      "type": "event"
    },
    {
      "anonymous": false,
      "inputs": [
        {
          "indexed": false,
          "internalType": "uint256",
          "name": "_balance",
          "type": "uint256"
        },
        {
          "indexed": false,
          "internalType": "string",
          "name": "_message",
          "type": "string"
        }
      ],
      "name": "unitsOwnedOfATokenEvent",
      "type": "event"
    },
    {
      "inputs": [],
      "name": "decimals",
      "outputs": [
        {
          "internalType": "uint8",
          "name": "",
          "type": "uint8"
        }
      ],
      "stateMutability": "view",
      "type": "function",
      "constant": true
    },
    {
      "inputs": [],
      "name": "name",
      "outputs": [
        {
          "internalType": "string",
          "name": "",
          "type": "string"
        }
      ],
      "stateMutability": "view",
      "type": "function",
      "constant": true
    },
    {
      "inputs": [],
      "name": "symbol",
      "outputs": [
        {
          "internalType": "string",
          "name": "",
          "type": "string"
        }
      ],
      "stateMutability": "view",
      "type": "function",
      "constant": true
    },
    {
      "inputs": [],
      "name": "tokenTotalSupply",
      "outputs": [
        {
          "internalType": "uint256",
          "name": "",
          "type": "uint256"
        }
      ],
      "stateMutability": "view",
      "type": "function",
      "constant": true
    },
    {
      "inputs": [],
      "name": "getAcoinTotalSupply",
      "outputs": [
        {
          "internalType": "uint256",
          "name": "",
          "type": "uint256"
        }
      ],
      "stateMutability": "nonpayable",
      "type": "function"
    },
    {
      "inputs": [
        {
          "internalType": "address",
          "name": "acoinOwner",
          "type": "address"
        }
      ],
      "name": "acoinBalanceOf",
      "outputs": [
        {
          "internalType": "uint256",
          "name": "",
          "type": "uint256"
        }
      ],
      "stateMutability": "nonpayable",
      "type": "function"
    },
    {
      "inputs": [
        {
          "internalType": "address",
          "name": "account",
          "type": "address"
        },
        {
          "internalType": "uint256",
          "name": "numACoins",
          "type": "uint256"
        }
      ],
      "name": "buyACoin",
      "outputs": [],
      "stateMutability": "payable",
      "type": "function",
      "payable": true
    },
    {
      "inputs": [
        {
          "internalType": "address",
          "name": "account",
          "type": "address"
        },
        {
          "internalType": "uint256",
          "name": "numACoins",
          "type": "uint256"
        }
      ],
      "name": "burnACoin",
      "outputs": [],
      "stateMutability": "payable",
      "type": "function",
      "payable": true
    },
    {
      "inputs": [
        {
          "internalType": "address",
          "name": "sender",
          "type": "address"
        },
        {
          "internalType": "address",
          "name": "receiver",
          "type": "address"
        },
        {
          "internalType": "uint256",
          "name": "numACoins",
          "type": "uint256"
        }
      ],
      "name": "transferACoin",
      "outputs": [
        {
          "internalType": "bool",
          "name": "",
          "type": "bool"
        }
      ],
      "stateMutability": "nonpayable",
      "type": "function"
    },
    {
      "inputs": [
        {
          "internalType": "string",
          "name": "_tokenId",
          "type": "string"
        }
      ],
      "name": "divisibilityOfAToken",
      "outputs": [
        {
          "internalType": "uint256",
          "name": "_divisibility",
          "type": "uint256"
        }
      ],
      "stateMutability": "nonpayable",
      "type": "function"
    },
    {
      "inputs": [],
      "name": "totalSupplyView",
      "outputs": [
        {
          "internalType": "uint256",
          "name": "_totalSupply",
          "type": "uint256"
        }
      ],
      "stateMutability": "nonpayable",
      "type": "function"
    },
    {
      "inputs": [
        {
          "internalType": "address",
          "name": "_owner",
          "type": "address"
        },
        {
          "internalType": "string",
          "name": "_tokenId",
          "type": "string"
        }
      ],
      "name": "unitsOwnedOfAToken",
      "outputs": [
        {
          "internalType": "uint256",
          "name": "_balance",
          "type": "uint256"
        }
      ],
      "stateMutability": "nonpayable",
      "type": "function"
    },
    {
      "inputs": [
        {
          "internalType": "address",
          "name": "_owner",
          "type": "address"
        },
        {
          "internalType": "string",
          "name": "_tokenId",
          "type": "string"
        },
        {
          "internalType": "uint256",
          "name": "_noOfShares",
          "type": "uint256"
        }
      ],
      "name": "mint",
      "outputs": [],
      "stateMutability": "nonpayable",
      "type": "function"
    },
    {
      "inputs": [
        {
          "internalType": "address",
          "name": "_from",
          "type": "address"
        },
        {
          "internalType": "address",
          "name": "_to",
          "type": "address"
        },
        {
          "internalType": "string",
          "name": "_tokenId",
          "type": "string"
        },
        {
          "internalType": "uint256",
          "name": "_units",
          "type": "uint256"
        }
      ],
      "name": "transferToken",
      "outputs": [],
      "stateMutability": "nonpayable",
      "type": "function"
    }
  ],
  "bytecode": "0x60806040526000600181905550600060078190555033600260006101000a81548173ffffffffffffffffffffffffffffffffffffffff021916908373ffffffffffffffffffffffffffffffffffffffff160217905550611c9f806100646000396000f3fe6080604052600436106100dd5760003560e01c8063a11f60b91161007f578063cd98a3ce11610059578063cd98a3ce146102a1578063da32fcc8146102bd578063dcecd152146102fa578063f7abab9e14610337576100dd565b8063a11f60b91461021f578063ba7aef431461023b578063bb559b1b14610264576100dd565b8063313ce567116100bb578063313ce567146101755780635ab744ec146101a05780637898cd18146101c957806395d89b41146101f4576100dd565b806306fdde03146100e25780630e4156ed1461010d57806317baec4114610138575b600080fd5b3480156100ee57600080fd5b506100f7610362565b6040516101049190611138565b60405180910390f35b34801561011957600080fd5b5061012261039b565b60405161012f9190611173565b60405180910390f35b34801561014457600080fd5b5061015f600480360381019061015a919061122c565b6103de565b60405161016c919061129a565b60405180910390f35b34801561018157600080fd5b5061018a610627565b60405161019791906112d1565b60405180910390f35b3480156101ac57600080fd5b506101c760048036038101906101c29190611421565b61062c565b005b3480156101d557600080fd5b506101de610741565b6040516101eb9190611173565b60405180910390f35b34801561020057600080fd5b50610209610784565b6040516102169190611138565b60405180910390f35b610239600480360381019061023491906114a4565b6107bd565b005b34801561024757600080fd5b50610262600480360381019061025d91906114e4565b610938565b005b34801561027057600080fd5b5061028b60048036038101906102869190611553565b610a7b565b6040516102989190611173565b60405180910390f35b6102bb60048036038101906102b691906114a4565b610b73565b005b3480156102c957600080fd5b506102e460048036038101906102df91906115af565b610d39565b6040516102f19190611173565b60405180910390f35b34801561030657600080fd5b50610321600480360381019061031c91906115dc565b610df6565b60405161032e9190611173565b60405180910390f35b34801561034357600080fd5b5061034c610e73565b6040516103599190611173565b60405180910390f35b6040518060400160405280600581526020017f41436f696e00000000000000000000000000000000000000000000000000000081525081565b60007fd17e8f74496f1f45c749f2c4fe6202ff3da7f3714646ca47502aac08ace05cf16001546040516103ce9190611671565b60405180910390a1600154905090565b6000600260009054906101000a900473ffffffffffffffffffffffffffffffffffffffff1673ffffffffffffffffffffffffffffffffffffffff163373ffffffffffffffffffffffffffffffffffffffff1614610470576040517f08c379a000000000000000000000000000000000000000000000000000000000815260040161046790611711565b60405180910390fd5b6000808573ffffffffffffffffffffffffffffffffffffffff1673ffffffffffffffffffffffffffffffffffffffff168152602001908152602001600020548211156104bb57600080fd5b61050c826000808773ffffffffffffffffffffffffffffffffffffffff1673ffffffffffffffffffffffffffffffffffffffff16815260200190815260200160002054610e7990919063ffffffff16565b6000808673ffffffffffffffffffffffffffffffffffffffff1673ffffffffffffffffffffffffffffffffffffffff1681526020019081526020016000208190555061059f826000808673ffffffffffffffffffffffffffffffffffffffff1673ffffffffffffffffffffffffffffffffffffffff16815260200190815260200160002054610ea090919063ffffffff16565b6000808573ffffffffffffffffffffffffffffffffffffffff1673ffffffffffffffffffffffffffffffffffffffff168152602001908152602001600020819055507f8fe4ca1e1045b4bd53edfd2ee1401cf63c4846974c1f43a548be85d2ef65aedc84848460405161061493929190611740565b60405180910390a1600190509392505050565b601281565b816001151560058260405161064191906117b3565b908152602001604051809103902060009054906101000a900460ff1615151461066957600080fd5b81600360008773ffffffffffffffffffffffffffffffffffffffff1673ffffffffffffffffffffffffffffffffffffffff168152602001908152602001600020846040516106b791906117b3565b90815260200160405180910390205410156106d157600080fd5b6106dc858484610ecc565b6106e7858484610f43565b6106f2848484610fba565b6106fd848484611031565b7f3c4d3746385ed80eba6f5197c1585791c2b6b82c6df5ee058898bbd7123c155a85858585604051610732949392919061183c565b60405180910390a15050505050565b60007f6c5644922aef3b3ccbef7539533a1236f3f11371d261a16c04fb92dafd10a96960075460405161077491906118e7565b60405180910390a1600754905090565b6040518060400160405280600581526020017f41434e465400000000000000000000000000000000000000000000000000000081525081565b600260009054906101000a900473ffffffffffffffffffffffffffffffffffffffff1673ffffffffffffffffffffffffffffffffffffffff163373ffffffffffffffffffffffffffffffffffffffff161461084d576040517f08c379a000000000000000000000000000000000000000000000000000000000815260040161084490611711565b60405180910390fd5b61089e816000808573ffffffffffffffffffffffffffffffffffffffff1673ffffffffffffffffffffffffffffffffffffffff16815260200190815260200160002054610ea090919063ffffffff16565b6000808473ffffffffffffffffffffffffffffffffffffffff1673ffffffffffffffffffffffffffffffffffffffff168152602001908152602001600020819055506108f581600154610ea090919063ffffffff16565b6001819055507ff3e7279dbcf04c5b53902e8d61838bcb4e673cdc83dbd7b2ad3e478d35b7d876828260405161092c929190611915565b60405180910390a15050565b816000151560058260405161094d91906117b3565b908152602001604051809103902060009054906101000a900460ff1615151461097557600080fd5b8160068460405161098691906117b3565b90815260200160405180910390208190555060016005846040516109aa91906117b3565b908152602001604051809103902060006101000a81548160ff0219169083151502179055506109f884846006866040516109e491906117b3565b908152602001604051809103902054610fba565b610a218484600686604051610a0d91906117b3565b908152602001604051809103902054611031565b6001600754610a30919061196d565b6007819055507f5442323868c88ce69587b6cf55faeac71811644a0406c2ad7c8fd5980a12be2f848484600754604051610a6d9493929190611a13565b60405180910390a150505050565b60007f99ac8b5347c553f549705d30651117396d8af2292e595cfae5094494343d3530600360008573ffffffffffffffffffffffffffffffffffffffff1673ffffffffffffffffffffffffffffffffffffffff16815260200190815260200160002083604051610aeb91906117b3565b908152602001604051809103902054604051610b079190611abe565b60405180910390a1600360008473ffffffffffffffffffffffffffffffffffffffff1673ffffffffffffffffffffffffffffffffffffffff16815260200190815260200160002082604051610b5c91906117b3565b908152602001604051809103902054905092915050565b600260009054906101000a900473ffffffffffffffffffffffffffffffffffffffff1673ffffffffffffffffffffffffffffffffffffffff163373ffffffffffffffffffffffffffffffffffffffff1614610c03576040517f08c379a0000000000000000000000000000000000000000000000000000000008152600401610bfa90611711565b60405180910390fd5b806000808473ffffffffffffffffffffffffffffffffffffffff1673ffffffffffffffffffffffffffffffffffffffff168152602001908152602001600020541015610c4e57600080fd5b610c9f816000808573ffffffffffffffffffffffffffffffffffffffff1673ffffffffffffffffffffffffffffffffffffffff16815260200190815260200160002054610e7990919063ffffffff16565b6000808473ffffffffffffffffffffffffffffffffffffffff1673ffffffffffffffffffffffffffffffffffffffff16815260200190815260200160002081905550610cf681600154610e7990919063ffffffff16565b6001819055507f42db287a30355c529c46f4eb1854a16b19faf1e0c3a4ae09ff24882de13ba3198282604051610d2d929190611915565b60405180910390a15050565b60007f63a0992d5333ee052eaeba732cea339610ff977d964bb4315270ac116fddcbec6000808473ffffffffffffffffffffffffffffffffffffffff1673ffffffffffffffffffffffffffffffffffffffff16815260200190815260200160002054604051610da89190611b38565b60405180910390a16000808373ffffffffffffffffffffffffffffffffffffffff1673ffffffffffffffffffffffffffffffffffffffff168152602001908152602001600020549050919050565b60007f4d5526c30313042fcdb90aec600eb84e579df0ed9a188ae96b4e884b428b957d600683604051610e2991906117b3565b908152602001604051809103902054604051610e459190611bd8565b60405180910390a1600682604051610e5d91906117b3565b9081526020016040518091039020549050919050565b60075481565b600082821115610e8c57610e8b611c06565b5b8183610e989190611c35565b905092915050565b6000808284610eaf919061196d565b905083811015610ec257610ec1611c06565b5b8091505092915050565b80600360008573ffffffffffffffffffffffffffffffffffffffff1673ffffffffffffffffffffffffffffffffffffffff16815260200190815260200160002083604051610f1a91906117b3565b90815260200160405180910390206000828254610f379190611c35565b92505081905550505050565b80600483604051610f5491906117b3565b908152602001604051809103902060008573ffffffffffffffffffffffffffffffffffffffff1673ffffffffffffffffffffffffffffffffffffffff1681526020019081526020016000206000828254610fae9190611c35565b92505081905550505050565b80600360008573ffffffffffffffffffffffffffffffffffffffff1673ffffffffffffffffffffffffffffffffffffffff1681526020019081526020016000208360405161100891906117b3565b90815260200160405180910390206000828254611025919061196d565b92505081905550505050565b8060048360405161104291906117b3565b908152602001604051809103902060008573ffffffffffffffffffffffffffffffffffffffff1673ffffffffffffffffffffffffffffffffffffffff168152602001908152602001600020600082825461109c919061196d565b92505081905550505050565b600081519050919050565b600082825260208201905092915050565b60005b838110156110e25780820151818401526020810190506110c7565b60008484015250505050565b6000601f19601f8301169050919050565b600061110a826110a8565b61111481856110b3565b93506111248185602086016110c4565b61112d816110ee565b840191505092915050565b6000602082019050818103600083015261115281846110ff565b905092915050565b6000819050919050565b61116d8161115a565b82525050565b60006020820190506111886000830184611164565b92915050565b6000604051905090565b600080fd5b600080fd5b600073ffffffffffffffffffffffffffffffffffffffff82169050919050565b60006111cd826111a2565b9050919050565b6111dd816111c2565b81146111e857600080fd5b50565b6000813590506111fa816111d4565b92915050565b6112098161115a565b811461121457600080fd5b50565b60008135905061122681611200565b92915050565b60008060006060848603121561124557611244611198565b5b6000611253868287016111eb565b9350506020611264868287016111eb565b925050604061127586828701611217565b9150509250925092565b60008115159050919050565b6112948161127f565b82525050565b60006020820190506112af600083018461128b565b92915050565b600060ff82169050919050565b6112cb816112b5565b82525050565b60006020820190506112e660008301846112c2565b92915050565b600080fd5b600080fd5b7f4e487b7100000000000000000000000000000000000000000000000000000000600052604160045260246000fd5b61132e826110ee565b810181811067ffffffffffffffff8211171561134d5761134c6112f6565b5b80604052505050565b600061136061118e565b905061136c8282611325565b919050565b600067ffffffffffffffff82111561138c5761138b6112f6565b5b611395826110ee565b9050602081019050919050565b82818337600083830152505050565b60006113c46113bf84611371565b611356565b9050828152602081018484840111156113e0576113df6112f1565b5b6113eb8482856113a2565b509392505050565b600082601f830112611408576114076112ec565b5b81356114188482602086016113b1565b91505092915050565b6000806000806080858703121561143b5761143a611198565b5b6000611449878288016111eb565b945050602061145a878288016111eb565b935050604085013567ffffffffffffffff81111561147b5761147a61119d565b5b611487878288016113f3565b925050606061149887828801611217565b91505092959194509250565b600080604083850312156114bb576114ba611198565b5b60006114c9858286016111eb565b92505060206114da85828601611217565b9150509250929050565b6000806000606084860312156114fd576114fc611198565b5b600061150b868287016111eb565b935050602084013567ffffffffffffffff81111561152c5761152b61119d565b5b611538868287016113f3565b925050604061154986828701611217565b9150509250925092565b6000806040838503121561156a57611569611198565b5b6000611578858286016111eb565b925050602083013567ffffffffffffffff8111156115995761159861119d565b5b6115a5858286016113f3565b9150509250929050565b6000602082840312156115c5576115c4611198565b5b60006115d3848285016111eb565b91505092915050565b6000602082840312156115f2576115f1611198565b5b600082013567ffffffffffffffff8111156116105761160f61119d565b5b61161c848285016113f3565b91505092915050565b7f67657441636f696e546f74616c537570706c7900000000000000000000000000600082015250565b600061165b6013836110b3565b915061166682611625565b602082019050919050565b60006040820190506116866000830184611164565b81810360208301526116978161164e565b905092915050565b7f4f6e6c79206f776e65722063616e20696e766f6b6520746865207472616e736660008201527f6572206f662041436f696e730000000000000000000000000000000000000000602082015250565b60006116fb602c836110b3565b91506117068261169f565b604082019050919050565b6000602082019050818103600083015261172a816116ee565b9050919050565b61173a816111c2565b82525050565b60006060820190506117556000830186611731565b6117626020830185611731565b61176f6040830184611164565b949350505050565b600081905092915050565b600061178d826110a8565b6117978185611777565b93506117a78185602086016110c4565b80840191505092915050565b60006117bf8284611782565b915081905092915050565b7f7472616e73666572202d207472616e73666572207061727473206f662061207460008201527f6f6b656e20746f20616e6f746865722075736572000000000000000000000000602082015250565b60006118266034836110b3565b9150611831826117ca565b604082019050919050565b600060a0820190506118516000830187611731565b61185e6020830186611731565b818103604083015261187081856110ff565b905061187f6060830184611164565b818103608083015261189081611819565b905095945050505050565b7f746f74616c537570706c79566965770000000000000000000000000000000000600082015250565b60006118d1600f836110b3565b91506118dc8261189b565b602082019050919050565b60006040820190506118fc6000830184611164565b818103602083015261190d816118c4565b905092915050565b600060408201905061192a6000830185611731565b6119376020830184611164565b9392505050565b7f4e487b7100000000000000000000000000000000000000000000000000000000600052601160045260246000fd5b60006119788261115a565b91506119838361115a565b925082820190508082111561199b5761199a61193e565b5b92915050565b7f6d696e74202d204d696e74696e67206772616e74732031303025206f6620746860008201527f6520746f6b656e20746f2061206e6577206f776e657200000000000000000000602082015250565b60006119fd6036836110b3565b9150611a08826119a1565b604082019050919050565b600060a082019050611a286000830187611731565b8181036020830152611a3a81866110ff565b9050611a496040830185611164565b611a566060830184611164565b8181036080830152611a67816119f0565b905095945050505050565b7f756e6974734f776e65644f6641546f6b656e0000000000000000000000000000600082015250565b6000611aa86012836110b3565b9150611ab382611a72565b602082019050919050565b6000604082019050611ad36000830184611164565b8181036020830152611ae481611a9b565b905092915050565b7f61636f696e42616c616e63654f66000000000000000000000000000000000000600082015250565b6000611b22600e836110b3565b9150611b2d82611aec565b602082019050919050565b6000604082019050611b4d6000830184611164565b8181036020830152611b5e81611b15565b905092915050565b7f64697669736962696c6974794f6641546f6b656e202d2054686520646976697360008201527f69626c69747920616d6f756e74206f66206120746f6b656e0000000000000000602082015250565b6000611bc26038836110b3565b9150611bcd82611b66565b604082019050919050565b6000604082019050611bed6000830184611164565b8181036020830152611bfe81611bb5565b905092915050565b7f4e487b7100000000000000000000000000000000000000000000000000000000600052600160045260246000fd5b6000611c408261115a565b9150611c4b8361115a565b9250828203905081811115611c6357611c6261193e565b5b9291505056fea2646970667358221220f2d270cdf0d63c9b43a59bc0fe073df8d4e4e9dd599a7781c5e656b11bd4137e64736f6c63430008100033",
  "immutableReferences": {},
  "source": "// SPDX-License-Identifier: MIT\r\npragma solidity ^0.8.9;\r\n\r\ncontract DivisibleNFTs {\r\n    using SafeMath for uint256;\r\n\r\n    // ----------------------- Variables for ACoin ------------------------\r\n    string public constant name = \"ACoin\"; // Name of the coin\r\n    string public constant symbol = \"ACNFT\"; // Ticker for ACoin\r\n    uint8 public constant decimals = 18; // Precision of use for the ACoin\r\n    mapping(address => uint256) acoinBalances; // ACoin balances of the Traders\r\n    uint256 acoinTotalSupply; // Total supply of the ACoin\r\n    address owner;\r\n\r\n    // ------------------------------ All Events ------------------------------\r\n\tevent unitsOwnedOfATokenEvent(uint256  _balance, string _message);\r\n\r\n\tevent divisibilityEvent(uint256 _divisibility, string _message);\r\n\r\n\tevent mintEvent(address _owner, string _tokenId, uint _noOfShares, uint _tokenTotalSupply, string _message);\r\n\r\n\tevent transferTokenEvent(address _from, address _to, string _tokenId, uint _units, string _message);\r\n\r\n\tevent totalSupplyEvent(uint256 _totalSupply, string _message);\r\n\r\n\tevent buyACoinEvent(address _account, uint _numACoins);\r\n\r\n\tevent burnACoinEvent(address _account, uint _numACoins);\r\n\r\n    event transferACoinEvent(address _from, address _to, uint _numACoins);\r\n\r\n\tevent getAcoinTotalSupplyEvent( uint _acoinTotalSupply, string _message);\r\n\r\n\tevent acoinBalanceOfEvent(uint _acoinBalance, string _message);\r\n\r\n    // ----------------------- Variables for Non Fungible Token Management------------------------\r\n\r\n    // Percentage of ownership over a token\r\n    mapping(address => mapping(string => uint256)) ownerToTokenShare;\r\n    // {user_account_address --> tokenId --> amount_holded_of_that_tokenId_by_that_address}\r\n\r\n    // How much owners have of a token\r\n    mapping(string => mapping(address => uint256)) tokenToOwnersHoldings;\r\n    // {tokenId --> user_account_address --> amount_holded_of_that_tokenId_by_that_address}\r\n\r\n    // If a token has been created\r\n    mapping(string => bool) mintedToken;\r\n    // tokenId --> returns true or false if the token with that Id is minted\r\n\r\n    // Number of equal(fungible) units that constitute a token (that a token can be divised to)\r\n    mapping(string => uint256) divisibility; // All tokens would have a different divisibilit factor\r\n    // Divisibility for each token is basically the amount of shares that NFT has\r\n\r\n    // total of managed/tracked tokens by this smart contract\r\n    uint256 public tokenTotalSupply;\r\n\r\n    // ------------------------------ Constructor ------------------------------\r\n    constructor() payable {\r\n        acoinTotalSupply = 0;\r\n\t\ttokenTotalSupply = 0;\r\n        owner = msg.sender;\r\n    }\r\n\r\n    // ====================== Everything related to ACoin =========================\r\n\r\n    // ------------------------------ Modifiers ------------------------------\r\n    // Modifier to check that the caller is the owner of\r\n    // the contract.\r\n    modifier onlyOwner() {\r\n        require(\r\n            msg.sender == owner,\r\n            \"Only owner can invoke the transfer of ACoins\"\r\n        );\r\n        _;\r\n    }\r\n\r\n    // ------------------------------ View functions ------------------------------\r\n\r\n    /// @dev The total ACoins iin circulation at the moment of invocation of this function\r\n    function getAcoinTotalSupply() public returns (uint256) {\r\n\t\temit getAcoinTotalSupplyEvent(acoinTotalSupply, \"getAcoinTotalSupply\");\r\n        return acoinTotalSupply;\r\n    }\r\n\r\n    /// @dev The ACoin balance of that address\r\n    function acoinBalanceOf(address acoinOwner) public returns (uint256) {\r\n\t\temit acoinBalanceOfEvent( acoinBalances[acoinOwner], \"acoinBalanceOf\");\r\n        return acoinBalances[acoinOwner];\r\n    }\r\n\r\n    \r\n\r\n    // ------------------------------ Core public functions ------------------------------\r\n    \r\n\t/// @dev Buying ACoin, transferring ETH to owner\r\n    function buyACoin(address account, uint numACoins )\r\n\t\tpayable\r\n        public \r\n        onlyOwner\r\n    {\r\n        acoinBalances[account] = acoinBalances[account].add(numACoins);\r\n\t\tacoinTotalSupply = acoinTotalSupply.add(numACoins);\r\n\t\t// payable(owner).transfer(numACoins);\r\n        emit buyACoinEvent(account, numACoins);\r\n    }\r\n\r\n\t/// @dev Withdrawing ETH from ACoin, transferring ETH to user from owner\r\n    function burnACoin(address account, uint numACoins)\r\n\t\tpayable\r\n        public \r\n        onlyOwner\r\n    {\r\n\t\trequire(acoinBalances[account] >= numACoins);\r\n        acoinBalances[account] = acoinBalances[account].sub(numACoins);\r\n\t\tacoinTotalSupply = acoinTotalSupply.sub(numACoins);\r\n\t\t// payable(account).transfer(numACoins);\r\n        emit burnACoinEvent(account, numACoins);\r\n    }\r\n\t\r\n\t/// @dev Transferring ACoin from one user account to another\r\n    function transferACoin(address sender, address receiver, uint256 numACoins)\r\n        public\r\n        onlyOwner\r\n        returns (bool)\r\n    {\r\n        require(numACoins <= acoinBalances[sender]);\r\n        acoinBalances[sender] = acoinBalances[sender].sub(numACoins);\r\n        acoinBalances[receiver] = acoinBalances[receiver].add(numACoins);\r\n        emit transferACoinEvent(sender, receiver, numACoins);\r\n        return true;\r\n    }\r\n\r\n\r\n    // ====================== Everything related to Dividing the NFT =========================\r\n    // ------------------------------ Modifiers ------------------------------\r\n\r\n    modifier onlyNonExistentToken(string memory _tokenId) {\r\n        require(mintedToken[_tokenId] == false);\r\n        _;\r\n    }\r\n\r\n    modifier onlyExistentToken(string memory _tokenId) {\r\n        require(mintedToken[_tokenId] == true);\r\n        _;\r\n    }\r\n\r\n    // ------------------------------ View functions ------------------------------\r\n\r\n    /// @dev The divisiblity amount of a token\r\n\tfunction divisibilityOfAToken(string memory _tokenId) public returns (uint _divisibility)\r\n\t{\r\n\t\temit divisibilityEvent(divisibility[_tokenId], \"divisibilityOfAToken - The divisiblity amount of a token\");\r\n\t    return divisibility[_tokenId];\r\n\t}\r\n\r\n\t/// @dev The amount of a totalSupply\r\n    // Earlier totalSupplyView()\r\n\tfunction totalSupplyView() public returns (uint _totalSupply)\r\n\t{\r\n\t\temit totalSupplyEvent(tokenTotalSupply, \"totalSupplyView\");\r\n\t    return tokenTotalSupply;\r\n\t}\r\n\r\n    /// @dev The balance an owner have of a token\r\n    function unitsOwnedOfAToken(address _owner, string memory _tokenId)\r\n        public\r\n        returns (uint256 _balance)\r\n    {\r\n\t\temit unitsOwnedOfATokenEvent(ownerToTokenShare[_owner][_tokenId], \"unitsOwnedOfAToken\");\r\n        return ownerToTokenShare[_owner][_tokenId];\r\n    }\r\n\r\n    // ------------------------------ Core public functions ------------------------------\r\n\r\n    /// @dev Anybody can create a token in our example\r\n    /// @notice Minting grants 100% of the token to a new owner in our example\r\n    function mint(\r\n        address _owner,\r\n        string memory _tokenId,\r\n        uint256 _noOfShares\r\n    ) public onlyNonExistentToken(_tokenId) {\r\n\r\n        divisibility[_tokenId] = _noOfShares;\r\n\r\n        mintedToken[_tokenId] = true;\r\n\r\n        _addShareToNewOwner(_owner, _tokenId, divisibility[_tokenId]);\r\n        _addNewOwnerHoldingsToToken(_owner, _tokenId, divisibility[_tokenId]);\r\n\r\n        tokenTotalSupply = tokenTotalSupply + 1;\r\n        emit mintEvent(_owner, _tokenId, _noOfShares, tokenTotalSupply,  \"mint - Minting grants 100% of the token to a new owner\");\r\n\r\n        //Minted(_owner, _tokenId); // emit event\r\n    }\r\n\r\n    /// @dev transfer parts of a token to another user\r\n    // Earlier transfer(_from, _to, _tokenId, _units)\r\n    function transferToken(\r\n        address _from,\r\n        address _to,\r\n        string memory _tokenId,\r\n        uint256 _units\r\n    ) public onlyExistentToken(_tokenId) {\r\n        require(ownerToTokenShare[_from][_tokenId] >= _units);\r\n        // TODO should check _to address to avoid losing tokens units\r\n\r\n        _removeShareFromLastOwner(_from, _tokenId, _units);\r\n        _removeLastOwnerHoldingsFromToken(_from, _tokenId, _units);\r\n\r\n        _addShareToNewOwner(_to, _tokenId, _units);\r\n        _addNewOwnerHoldingsToToken(_to, _tokenId, _units);\r\n        emit transferTokenEvent(_from,  _to,  _tokenId,  _units,  \"transfer - transfer parts of a token to another user\");\r\n\r\n        //Transfer(msg.sender, _to, _tokenId, _units); // emit event\r\n    }\r\n\r\n    // ------------------------------ Helper functions (internal functions) ------------------------------\r\n\r\n    // Remove token units from last owner\r\n    function _removeShareFromLastOwner(\r\n        address _owner,\r\n        string memory _tokenId,\r\n        uint256 _units\r\n    ) internal {\r\n        ownerToTokenShare[_owner][_tokenId] -= _units;\r\n    }\r\n\r\n    // Add token units to new owner\r\n    function _addShareToNewOwner(\r\n        address _owner,\r\n        string memory _tokenId,\r\n        uint256 _units\r\n    ) internal {\r\n        ownerToTokenShare[_owner][_tokenId] += _units;\r\n    }\r\n\r\n    // Remove units from last owner\r\n    function _removeLastOwnerHoldingsFromToken(\r\n        address _owner,\r\n        string memory _tokenId,\r\n        uint256 _units\r\n    ) internal {\r\n        tokenToOwnersHoldings[_tokenId][_owner] -= _units;\r\n    }\r\n\r\n    // Add the units to new owner\r\n    function _addNewOwnerHoldingsToToken(\r\n        address _owner,\r\n        string memory _tokenId,\r\n        uint256 _units\r\n    ) internal {\r\n        tokenToOwnersHoldings[_tokenId][_owner] += _units;\r\n    }\r\n}\r\n\r\n\r\nlibrary SafeMath {\r\n    function sub(uint256 a, uint256 b) internal pure returns (uint256) {\r\n        assert(b <= a);\r\n        return a - b;\r\n    }\r\n\r\n    function add(uint256 a, uint256 b) internal pure returns (uint256) {\r\n        uint256 c = a + b;\r\n        assert(c >= a);\r\n        return c;\r\n    }\r\n}",
  "sourcePath": "D:\\Desktop\\bnb-server\\blockchain\\contracts\\DivisibleNFTs.sol",
  "compiler": {
    "name": "solc",
    "version": "0.8.16+commit.07a7930e.Emscripten.clang"
  },
  "schemaVersion": "3.4.10",
  "updatedAt": "2023-01-28T20:23:23.854Z",
  "networkType": "ethereum",
  "devdoc": {
    "kind": "dev",
    "methods": {
      "acoinBalanceOf(address)": {
        "details": "The ACoin balance of that address"
      },
      "burnACoin(address,uint256)": {
        "details": "Withdrawing ETH from ACoin, transferring ETH to user from owner"
      },
      "buyACoin(address,uint256)": {
        "details": "Buying ACoin, transferring ETH to owner"
      },
      "divisibilityOfAToken(string)": {
        "details": "The divisiblity amount of a token"
      },
      "getAcoinTotalSupply()": {
        "details": "The total ACoins iin circulation at the moment of invocation of this function"
      },
      "mint(address,string,uint256)": {
        "details": "Anybody can create a token in our example"
      },
      "totalSupplyView()": {
        "details": "The amount of a totalSupply"
      },
      "transferACoin(address,address,uint256)": {
        "details": "Transferring ACoin from one user account to another"
      },
      "transferToken(address,address,string,uint256)": {
        "details": "transfer parts of a token to another user"
      },
      "unitsOwnedOfAToken(address,string)": {
        "details": "The balance an owner have of a token"
      }
    },
    "version": 1
  },
  "userdoc": {
    "kind": "user",
    "methods": {
      "mint(address,string,uint256)": {
        "notice": "Minting grants 100% of the token to a new owner in our example"
      }
    },
    "version": 1
  }
}